{
  "contractName": "Election",
  "abi": [
    {
      "inputs": [],
      "stateMutability": "nonpayable",
      "type": "constructor"
    },
    {
      "anonymous": false,
      "inputs": [
        {
          "indexed": true,
          "internalType": "address",
          "name": "voter",
          "type": "address"
        },
        {
          "indexed": false,
          "internalType": "uint256",
          "name": "ballotId",
          "type": "uint256"
        },
        {
          "indexed": false,
          "internalType": "uint256",
          "name": "candidateId",
          "type": "uint256"
        }
      ],
      "name": "Voted",
      "type": "event"
    },
    {
      "inputs": [],
      "name": "admin",
      "outputs": [
        {
          "internalType": "address",
          "name": "",
          "type": "address"
        }
      ],
      "stateMutability": "view",
      "type": "function"
    },
    {
      "inputs": [
        {
          "internalType": "uint256",
          "name": "",
          "type": "uint256"
        }
      ],
      "name": "ballots",
      "outputs": [
        {
          "internalType": "string",
          "name": "title",
          "type": "string"
        }
      ],
      "stateMutability": "view",
      "type": "function"
    },
    {
      "inputs": [
        {
          "internalType": "uint256",
          "name": "",
          "type": "uint256"
        }
      ],
      "name": "candidates",
      "outputs": [
        {
          "internalType": "string",
          "name": "name",
          "type": "string"
        },
        {
          "internalType": "uint256",
          "name": "voteCount",
          "type": "uint256"
        }
      ],
      "stateMutability": "view",
      "type": "function"
    },
    {
      "inputs": [
        {
          "internalType": "uint256",
          "name": "",
          "type": "uint256"
        },
        {
          "internalType": "address",
          "name": "",
          "type": "address"
        }
      ],
      "name": "hasVoted",
      "outputs": [
        {
          "internalType": "bool",
          "name": "",
          "type": "bool"
        }
      ],
      "stateMutability": "view",
      "type": "function"
    },
    {
      "inputs": [
        {
          "internalType": "string",
          "name": "title",
          "type": "string"
        },
        {
          "internalType": "string[]",
          "name": "candidateNames",
          "type": "string[]"
        }
      ],
      "name": "createBallot",
      "outputs": [],
      "stateMutability": "nonpayable",
      "type": "function"
    },
    {
      "inputs": [
        {
          "internalType": "uint256",
          "name": "ballotId",
          "type": "uint256"
        },
        {
          "internalType": "uint256",
          "name": "candidateId",
          "type": "uint256"
        }
      ],
      "name": "vote",
      "outputs": [],
      "stateMutability": "nonpayable",
      "type": "function"
    },
    {
      "inputs": [],
      "name": "getBallotCount",
      "outputs": [
        {
          "internalType": "uint256",
          "name": "",
          "type": "uint256"
        }
      ],
      "stateMutability": "view",
      "type": "function"
    },
    {
      "inputs": [],
      "name": "getCandidateCount",
      "outputs": [
        {
          "internalType": "uint256",
          "name": "",
          "type": "uint256"
        }
      ],
      "stateMutability": "view",
      "type": "function"
    },
    {
      "inputs": [
        {
          "internalType": "uint256",
          "name": "ballotId",
          "type": "uint256"
        }
      ],
      "name": "getBallotTitle",
      "outputs": [
        {
          "internalType": "string",
          "name": "",
          "type": "string"
        }
      ],
      "stateMutability": "view",
      "type": "function"
    },
    {
      "inputs": [
        {
          "internalType": "uint256",
          "name": "candidateId",
          "type": "uint256"
        }
      ],
      "name": "getCandidateName",
      "outputs": [
        {
          "internalType": "string",
          "name": "",
          "type": "string"
        }
      ],
      "stateMutability": "view",
      "type": "function"
    },
    {
      "inputs": [
        {
          "internalType": "uint256",
          "name": "candidateId",
          "type": "uint256"
        }
      ],
      "name": "getVoteCount",
      "outputs": [
        {
          "internalType": "uint256",
          "name": "",
          "type": "uint256"
        }
      ],
      "stateMutability": "view",
      "type": "function"
    }
  ],
  "bytecode": "0x608060405234801561000f575f80fd5b50335f806101000a81548173ffffffffffffffffffffffffffffffffffffffff021916908373ffffffffffffffffffffffffffffffffffffffff16021790555061146c8061005c5f395ff3fe608060405234801561000f575f80fd5b50600436106100a7575f3560e01c8063b2c2f2e81161006f578063b2c2f2e814610176578063b384abef146101a6578063b4741495146101c2578063e13804a7146101e0578063f3150a3214610210578063f851a44014610240576100a7565b806330a56347146100ab5780633477ee2e146100c957806343859632146100fa5780635c632b381461012a578063794074a11461015a575b5f80fd5b6100b361025e565b6040516100c09190610a15565b60405180910390f35b6100e360048036038101906100de9190610a69565b61026a565b6040516100f1929190610b1e565b60405180910390f35b610114600480360381019061010f9190610ba6565b61031f565b6040516101219190610bfe565b60405180910390f35b610144600480360381019061013f9190610a69565b610349565b6040516101519190610c17565b60405180910390f35b610174600480360381019061016f9190610e45565b6103f8565b005b610190600480360381019061018b9190610a69565b61062a565b60405161019d9190610a15565b60405180910390f35b6101c060048036038101906101bb9190610ebb565b610656565b005b6101ca61086a565b6040516101d79190610a15565b60405180910390f35b6101fa60048036038101906101f59190610a69565b610876565b6040516102079190610c17565b60405180910390f35b61022a60048036038101906102259190610a69565b610928565b6040516102379190610c17565b60405180910390f35b6102486109da565b6040516102559190610f08565b60405180910390f35b5f600280549050905090565b60028181548110610279575f80fd5b905f5260205f2090600202015f91509050805f01805461029890610f4e565b80601f01602080910402602001604051908101604052809291908181526020018280546102c490610f4e565b801561030f5780601f106102e65761010080835404028352916020019161030f565b820191905f5260205f20905b8154815290600101906020018083116102f257829003601f168201915b5050505050908060010154905082565b6003602052815f5260405f20602052805f5260405f205f915091509054906101000a900460ff1681565b60018181548110610358575f80fd5b905f5260205f2090600302015f91509050805f01805461037790610f4e565b80601f01602080910402602001604051908101604052809291908181526020018280546103a390610f4e565b80156103ee5780601f106103c5576101008083540402835291602001916103ee565b820191905f5260205f20905b8154815290600101906020018083116103d157829003601f168201915b5050505050905081565b5f8054906101000a900473ffffffffffffffffffffffffffffffffffffffff1673ffffffffffffffffffffffffffffffffffffffff163373ffffffffffffffffffffffffffffffffffffffff1614610485576040517f08c379a000000000000000000000000000000000000000000000000000000000815260040161047c90610fee565b60405180910390fd5b5f815167ffffffffffffffff8111156104a1576104a0610c3f565b5b6040519080825280602002602001820160405280156104cf5781602001602082028036833780820191505090505b5090505f5b8251811015610591575f6002805490509050600260405180604001604052808685815181106105065761050561100c565b5b602002602001015181526020015f815250908060018154018082558091505060019003905f5260205f2090600202015f909190919091505f820151815f01908161055091906111d6565b50602082015181600101555050808383815181106105715761057061100c565b5b602002602001018181525050508080610589906112d2565b9150506104d4565b505f6001808160018154018082558091505003905f5260205f209060030201905083815f0190816105c291906111d6565b505f5b835181101561062357816002018382815181106105e5576105e461100c565b5b6020026020010151908060018154018082558091505060019003905f5260205f20015f9091909190915055808061061b906112d2565b9150506105c5565b5050505050565b5f6002828154811061063f5761063e61100c565b5b905f5260205f209060020201600101549050919050565b5f6001838154811061066b5761066a61100c565b5b905f5260205f209060030201905060035f8481526020019081526020015f205f3373ffffffffffffffffffffffffffffffffffffffff1673ffffffffffffffffffffffffffffffffffffffff1681526020019081526020015f205f9054906101000a900460ff1615610712576040517f08c379a000000000000000000000000000000000000000000000000000000000815260040161070990611389565b60405180910390fd5b8060020180549050821061075b576040517f08c379a0000000000000000000000000000000000000000000000000000000008152600401610752906113f1565b60405180910390fd5b600160035f8581526020019081526020015f205f3373ffffffffffffffffffffffffffffffffffffffff1673ffffffffffffffffffffffffffffffffffffffff1681526020019081526020015f205f6101000a81548160ff02191690831515021790555060028160020183815481106107d7576107d661100c565b5b905f5260205f200154815481106107f1576107f061100c565b5b905f5260205f2090600202016001015f815480929190610810906112d2565b91905055503373ffffffffffffffffffffffffffffffffffffffff167fea66f58e474bc09f580000e81f31b334d171db387d0c6098ba47bd897741679b848460405161085d92919061140f565b60405180910390a2505050565b5f600180549050905090565b60606002828154811061088c5761088b61100c565b5b905f5260205f2090600202015f0180546108a590610f4e565b80601f01602080910402602001604051908101604052809291908181526020018280546108d190610f4e565b801561091c5780601f106108f35761010080835404028352916020019161091c565b820191905f5260205f20905b8154815290600101906020018083116108ff57829003601f168201915b50505050509050919050565b60606001828154811061093e5761093d61100c565b5b905f5260205f2090600302015f01805461095790610f4e565b80601f016020809104026020016040519081016040528092919081815260200182805461098390610f4e565b80156109ce5780601f106109a5576101008083540402835291602001916109ce565b820191905f5260205f20905b8154815290600101906020018083116109b157829003601f168201915b50505050509050919050565b5f8054906101000a900473ffffffffffffffffffffffffffffffffffffffff1681565b5f819050919050565b610a0f816109fd565b82525050565b5f602082019050610a285f830184610a06565b92915050565b5f604051905090565b5f80fd5b5f80fd5b610a48816109fd565b8114610a52575f80fd5b50565b5f81359050610a6381610a3f565b92915050565b5f60208284031215610a7e57610a7d610a37565b5b5f610a8b84828501610a55565b91505092915050565b5f81519050919050565b5f82825260208201905092915050565b5f5b83811015610acb578082015181840152602081019050610ab0565b5f8484015250505050565b5f601f19601f8301169050919050565b5f610af082610a94565b610afa8185610a9e565b9350610b0a818560208601610aae565b610b1381610ad6565b840191505092915050565b5f6040820190508181035f830152610b368185610ae6565b9050610b456020830184610a06565b9392505050565b5f73ffffffffffffffffffffffffffffffffffffffff82169050919050565b5f610b7582610b4c565b9050919050565b610b8581610b6b565b8114610b8f575f80fd5b50565b5f81359050610ba081610b7c565b92915050565b5f8060408385031215610bbc57610bbb610a37565b5b5f610bc985828601610a55565b9250506020610bda85828601610b92565b9150509250929050565b5f8115159050919050565b610bf881610be4565b82525050565b5f602082019050610c115f830184610bef565b92915050565b5f6020820190508181035f830152610c2f8184610ae6565b905092915050565b5f80fd5b5f80fd5b7f4e487b71000000000000000000000000000000000000000000000000000000005f52604160045260245ffd5b610c7582610ad6565b810181811067ffffffffffffffff82111715610c9457610c93610c3f565b5b80604052505050565b5f610ca6610a2e565b9050610cb28282610c6c565b919050565b5f67ffffffffffffffff821115610cd157610cd0610c3f565b5b610cda82610ad6565b9050602081019050919050565b828183375f83830152505050565b5f610d07610d0284610cb7565b610c9d565b905082815260208101848484011115610d2357610d22610c3b565b5b610d2e848285610ce7565b509392505050565b5f82601f830112610d4a57610d49610c37565b5b8135610d5a848260208601610cf5565b91505092915050565b5f67ffffffffffffffff821115610d7d57610d7c610c3f565b5b602082029050602081019050919050565b5f80fd5b5f610da4610d9f84610d63565b610c9d565b90508083825260208201905060208402830185811115610dc757610dc6610d8e565b5b835b81811015610e0e57803567ffffffffffffffff811115610dec57610deb610c37565b5b808601610df98982610d36565b85526020850194505050602081019050610dc9565b5050509392505050565b5f82601f830112610e2c57610e2b610c37565b5b8135610e3c848260208601610d92565b91505092915050565b5f8060408385031215610e5b57610e5a610a37565b5b5f83013567ffffffffffffffff811115610e7857610e77610a3b565b5b610e8485828601610d36565b925050602083013567ffffffffffffffff811115610ea557610ea4610a3b565b5b610eb185828601610e18565b9150509250929050565b5f8060408385031215610ed157610ed0610a37565b5b5f610ede85828601610a55565b9250506020610eef85828601610a55565b9150509250929050565b610f0281610b6b565b82525050565b5f602082019050610f1b5f830184610ef9565b92915050565b7f4e487b71000000000000000000000000000000000000000000000000000000005f52602260045260245ffd5b5f6002820490506001821680610f6557607f821691505b602082108103610f7857610f77610f21565b5b50919050565b7f4f6e6c79207468652061646d696e2063616e20706572666f726d2074686973205f8201527f616374696f6e0000000000000000000000000000000000000000000000000000602082015250565b5f610fd8602683610a9e565b9150610fe382610f7e565b604082019050919050565b5f6020820190508181035f83015261100581610fcc565b9050919050565b7f4e487b71000000000000000000000000000000000000000000000000000000005f52603260045260245ffd5b5f819050815f5260205f209050919050565b5f6020601f8301049050919050565b5f82821b905092915050565b5f600883026110957fffffffffffffffffffffffffffffffffffffffffffffffffffffffffffffffff8261105a565b61109f868361105a565b95508019841693508086168417925050509392505050565b5f819050919050565b5f6110da6110d56110d0846109fd565b6110b7565b6109fd565b9050919050565b5f819050919050565b6110f3836110c0565b6111076110ff826110e1565b848454611066565b825550505050565b5f90565b61111b61110f565b6111268184846110ea565b505050565b5b818110156111495761113e5f82611113565b60018101905061112c565b5050565b601f82111561118e5761115f81611039565b6111688461104b565b81016020851015611177578190505b61118b6111838561104b565b83018261112b565b50505b505050565b5f82821c905092915050565b5f6111ae5f1984600802611193565b1980831691505092915050565b5f6111c6838361119f565b9150826002028217905092915050565b6111df82610a94565b67ffffffffffffffff8111156111f8576111f7610c3f565b5b6112028254610f4e565b61120d82828561114d565b5f60209050601f83116001811461123e575f841561122c578287015190505b61123685826111bb565b86555061129d565b601f19841661124c86611039565b5f5b828110156112735784890151825560018201915060208501945060208101905061124e565b86831015611290578489015161128c601f89168261119f565b8355505b6001600288020188555050505b505050505050565b7f4e487b71000000000000000000000000000000000000000000000000000000005f52601160045260245ffd5b5f6112dc826109fd565b91507fffffffffffffffffffffffffffffffffffffffffffffffffffffffffffffffff820361130e5761130d6112a5565b5b600182019050919050565b7f596f75206861766520616c726561647920766f74656420696e207468697320625f8201527f616c6c6f742e0000000000000000000000000000000000000000000000000000602082015250565b5f611373602683610a9e565b915061137e82611319565b604082019050919050565b5f6020820190508181035f8301526113a081611367565b9050919050565b7f496e76616c69642063616e6469646174652049440000000000000000000000005f82015250565b5f6113db601483610a9e565b91506113e6826113a7565b602082019050919050565b5f6020820190508181035f830152611408816113cf565b9050919050565b5f6040820190506114225f830185610a06565b61142f6020830184610a06565b939250505056fea2646970667358221220266fdb1dca4c7dcdc0238787786527a8a768093e956c25526a44faea8590f98864736f6c63430008150033",
  "immutableReferences": {},
  "source": "// SPDX-License-Identifier: MIT\r\npragma solidity ^0.8.0;\r\n\r\ncontract Election {\r\n    struct Candidate {\r\n        string name;\r\n        uint voteCount;\r\n    }\r\n    \r\n    struct Ballot {\r\n        string title;\r\n        mapping(uint => bool) voted; // Mapping to keep track of who voted\r\n        uint[] candidateIds; // List of candidate IDs\r\n    }\r\n\r\n    address public admin;\r\n    Ballot[] public ballots;\r\n    Candidate[] public candidates;\r\n    mapping(uint => mapping(address => bool)) public hasVoted;\r\n\r\n    event Voted(address indexed voter, uint ballotId, uint candidateId);\r\n\r\n    modifier onlyAdmin() {\r\n        require(msg.sender == admin, \"Only the admin can perform this action\");\r\n        _;\r\n    }\r\n\r\n    constructor() {\r\n        admin = msg.sender;\r\n    }\r\n    \r\n    function createBallot(string memory title, string[] memory candidateNames) public onlyAdmin {\r\n    uint[] memory candidateIds = new uint[](candidateNames.length);\r\n    // uint ballotId = ballots.length; // Get the index of the new ballot\r\n\r\n    for (uint i = 0; i < candidateNames.length; i++) {\r\n        uint candidateId = candidates.length;\r\n        candidates.push(Candidate(candidateNames[i], 0));\r\n        candidateIds[i] = candidateId;\r\n    }\r\n\r\n    // Create a new ballot and associate candidate IDs with the ballot\r\n    Ballot storage newBallot = ballots.push();\r\n    newBallot.title = title;\r\n    \r\n    for (uint i = 0; i < candidateNames.length; i++) {\r\n        newBallot.candidateIds.push(candidateIds[i]);\r\n    }\r\n}\r\n\r\n\r\n    function vote(uint ballotId, uint candidateId) public {\r\n        Ballot storage ballot = ballots[ballotId];\r\n        require(!hasVoted[ballotId][msg.sender], \"You have already voted in this ballot.\");\r\n        require(candidateId < ballot.candidateIds.length, \"Invalid candidate ID\");\r\n        \r\n        hasVoted[ballotId][msg.sender] = true;\r\n        candidates[ballot.candidateIds[candidateId]].voteCount++;\r\n        emit Voted(msg.sender, ballotId, candidateId);\r\n    }\r\n    \r\n    function getBallotCount() public view returns (uint) {\r\n        return ballots.length;\r\n    }\r\n    \r\n    function getCandidateCount() public view returns (uint) {\r\n        return candidates.length;\r\n    }\r\n    \r\n    function getBallotTitle(uint ballotId) public view returns (string memory) {\r\n        return ballots[ballotId].title;\r\n    }\r\n    \r\n    function getCandidateName(uint candidateId) public view returns (string memory) {\r\n        return candidates[candidateId].name;\r\n    }\r\n    \r\n    function getVoteCount(uint candidateId) public view returns (uint) {\r\n        return candidates[candidateId].voteCount;\r\n    }\r\n}\r\n",
  "sourcePath": "D:\\Creatorslab_project\\Creatorslab_projects_2023\\E-Voting\\evotingtruffle\\contracts\\election.sol",
  "compiler": {
    "name": "solc",
    "version": "0.8.21+commit.d9974bed.Emscripten.clang"
  },
  "schemaVersion": "3.4.16",
  "updatedAt": "2023-10-14T16:18:29.982Z",
  "devdoc": {
    "kind": "dev",
    "methods": {},
    "version": 1
  },
  "userdoc": {
    "kind": "user",
    "methods": {},
    "version": 1
  }
}